:020000000C945E
:100002008C000C9400000C9400000C9400000C94E2
:1000120000000C9400000C9400000C9400000C945E
:1000220000000C9400000C9400000C9400000C944E
:1000320000000C9400000C9400000C9400000C943E
:1000420000000C9400000C9400000C9400000C942E
:1000520000000C9400000C9400000C94160B0C94FD
:1000620000000C94D0000C9400000C9400000C943E
:1000720000000C9400000C9400000C9400000C94FE
:1000820000000C9400000C9400000C9400000C94EE
:1000920021070C9400000C9400000C9400000C94B6
:1000A20000000C9400000C9400000C9400000C94CE
:1000B20000000C9400000C9400000C9400000C94BE
:1000C20000000C9400000C9400000C94380A0C946C
:1000D20000000C9400000C9400000C9400000C949E
:1000E20000001027E80364000A000100001000016C
:1000F200100001000000FF00FF00010001000200EB
:10010200F6000100540BF8000100550BFA00010043
:100112008D0BFC000000F894EE27EFBBF1E0F5BF79
:10012200E5BFE0937400E09375008DE0A2E0BB2789
:10013200ED938A95E9F780E090E2A0E0B2E0ED93DA
:100142000197E9F7EEEFF0E085919591009761F064
:10015200A591B59105901590BF01F00105900D9202
:100162000197E1F7FB01F0CF8BBF8CBFE0E0EEBB64
:10017200EFEFEDBFE1E2EEBFC0E0DAE00C94ED1686
:10018200E0E0E093590BE0935A0BE0935D0BE093B0
:100192005E0BE0935F0BE093600BF09808950E9472
:1001A200AC1A1091C0000091C600E12FEC71E9F485
:1001B200E0919A0BEF5FE0939A0BE150F0E0EE567C
:1001C200F44F0083A0919A0BA83019F4E0E0E09379
:1001D2009A0BA0919C0BAF5FA0939C0BA83029F4C3
:1001E200E0E0E0939C0B689421F80A3009F0B9C46E
:1001F200A091230BAF3741F4A091220BAE3F21F423
:10020200A091C80AAD3009F0ABC4A091210B0E94A5
:10021200BC1AE091200BF0E0EA0FFB1FE0933F0ACB
:10022200F093400AA0911F0B0E94BC1AE0911E0B92
:10023200F0E0EA0FFB1FE093510AF093520AA091FB
:100242001D0B0E94BC1AE0911C0BF0E0EA0FFB1F91
:10025200E093410AF093420AA0911B0B0E94BC1A40
:10026200E0911A0BF0E0EA0FFB1FE093530AF093C0
:10027200540AA091190B0E94BC1AE091180BF0E0ED
:10028200EA0FFB1FE093430AF093440AA091170B75
:100292000E94BC1AE091160BF0E0EA0FFB1FE093FC
:1002A200550AF093560AA091150B0E94BC1AE091D0
:1002B200140BF0E0EA0FFB1FE093450AF093460AA5
:1002C200A091130B0E94BC1AE091120BF0E0EA0F0E
:1002D200FB1FE093570AF093580AA091110B0E945A
:1002E200BC1AE091100BF0E0EA0FFB1FE093470A03
:1002F200F093480AA0910F0B0E94BC1AE0910E0BDA
:10030200F0E0EA0FFB1FE093590AF0935A0AA0911A
:100312000D0B0E94BC1AE0910C0BF0E0EA0FFB1FE0
:10032200E093490AF0934A0AA0910B0B0E94BC1A6F
:10033200E0910A0BF0E0EA0FFB1FE0935B0AF093F7
:100342005C0AA091090B0E94BC1AE091080BF0E034
:10035200EA0FFB1FE0934B0AF0934C0AA091070BA4
:100362000E94BC1AE091060BF0E0EA0FFB1FE0933B
:100372005D0AF0935E0AA091050B0E94BC1AE091FF
:10038200040BF0E0EA0FFB1FE0934D0AF0934E0AD4
:10039200A091030B0E94BC1AE091020BF0E0EA0F5D
:1003A200FB1FE0935F0AF093600AA091010B0E9489
:1003B200BC1AE091000BF0E0EA0FFB1FE0934F0A3A
:1003C200F093500AA091FF0A0E94BC1AE091FE0A23
:1003D200F0E0EA0FFB1FE093610AF093620AE091FA
:1003E200FD0AE093330BE091FC0AE093340BE072D8
:1003F200E03211F4E1E001C0E0E0E093750BE0913E
:10040200340BE071E03111F4E1E001C0E0E0E0938F
:10041200770BE091340BE870E83011F4E1E001C0B1
:10042200E0E0E093790BE091340BE074E03411F4F6
:10043200F39A01C0F398E091340BE470E43011F4C4
:10044200E1E001C0E0E0E093480BE091340BE270A0
:10045200E23011F4E1E001C0E0E0E0934A0BA09148
:100462004A0BA13021F4A091480BA03009F002C040
:10047200F59A01C0F598F39B03C0E0E0E093330BDB
:10048200E091340BE170E13011F4E1E001C0E0E011
:10049200E0934C0BE091FB0AE093350BE091FA0AF2
:1004A200E093360BA091350BA03021F4A091360BCE
:1004B200A03011F0E1E001C0E0E0E093730BE091C5
:1004C200F90AE093370BE091F80AE093630BE078C6
:1004D200E03831F4E0E0E093650BE093600B0FC08D
:1004E200A091650BA03021F4A091600BA03009F01F
:1004F20003C0E1E0E093600BE1E0E093650BA091C3
:10050200F70A0E94BC1AE091F60AF0E0EA0FFB1F1C
:10051200E0931B0AF0931C0AA091F50A0E94BC1AF0
:10052200E091F40AF0E0EA0FFB1FE0932D0AF0934A
:100532002E0AA091F30A0E94BC1AE091F20AF0E09E
:10054200EA0FFB1FE0931D0AF0931E0AA091F10A25
:100552000E94BC1AE091F00AF0E0EA0FFB1FE09360
:100562002F0AF093300AA091EF0A0E94BC1AE09180
:10057200EE0AF0E0EA0FFB1FE0931F0AF093200A55
:10058200A091ED0A0E94BC1AE091EC0AF0E0EA0F99
:10059200FB1FE093310AF093320AA091EB0A0E940A
:1005A200BC1AE091EA0AF0E0EA0FFB1FE093210A8D
:1005B200F093220AA091E90A0E94BC1AE091E80A8B
:1005C200F0E0EA0FFB1FE093330AF093340AA091A4
:1005D200E70A0E94BC1AE091E60AF0E0EA0FFB1F6C
:1005E200E093230AF093240AA091E50A0E94BC1A20
:1005F200E091E40AF0E0EA0FFB1FE093350AF09382
:10060200360AA091E30A0E94BC1AE091E20AF0E0E5
:10061200EA0FFB1FE093250AF093260AA091E10A54
:100622000E94BC1AE091E00AF0E0EA0FFB1FE0939F
:10063200370AF093380AA091DF0A0E94BC1AE091AF
:10064200DE0AF0E0EA0FFB1FE093270AF093280A84
:10065200A091DD0A0E94BC1AE091DC0AF0E0EA0FE8
:10066200FB1FE093390AF0933A0AA091DB0A0E9439
:10067200BC1AE091DA0AF0E0EA0FFB1FE093290AC4
:10068200F0932A0AA091D90A0E94BC1AE091D80AD2
:10069200F0E0EA0FFB1FE0933B0AF0933C0AA091C3
:1006A200D70A0E94BC1AE091D60AF0E0EA0FFB1FBB
:1006B200E0932B0AF0932C0AA091D50A0E94BC1A4F
:1006C200E091D40AF0E0EA0FFB1FE0933D0AF093B9
:1006D2003E0AE091D30AE0932E0BE091D20AE09316
:1006E2002F0BE074E03411F4F29A01C0F298E09119
:1006F2002F0BE072E03211F4E1E001C0E0E0E093A0
:10070200740BE0912F0BE071E03111F4E1E001C0D4
:10071200E0E0E093760BE0912F0BE870E83011F403
:10072200E1E001C0E0E0E093780BE0912F0BE47090
:10073200E43011F4E1E001C0E0E0E093470BE09126
:100742002F0BE270E23011F4E1E001C0E0E0E0934F
:10075200490BF29B03C0E0E0E0932E0BA091490B02
:10076200A13021F4A091470BA03009F002C0F49A05
:1007720001C0F498E0912F0BE170E13011F4E1E057
:1007820001C0E0E0E0934B0BE091D10AE093300B23
:10079200E091D00AE093310BA091300BA03021F40C
:1007A200A091310BA03011F0E1E001C0E0E0E09354
:1007B200720BE091CF0AE093320BE091CE0AE09304
:1007C200620BE078E03821F4E0E0E0935F0B0DC0CB
:1007D200A091640BA03021F4A0915F0BA03009F02E
:1007E20003C0E1E0E0935F0BE1E0E093640BE09192
:1007F200CD0AE078E03811F4E1E001C0E0E0E093F6
:10080200650AE091CD0AE074E03411F4E1E001C040
:10081200E0E0E093660AE091CD0AE072E03211F482
:10082200E1E001C0E0E0E093670AE091CD0AE07107
:10083200E03111F4E1E001C0E0E0E093680AA09148
:10084200650AA13061F0A091660AA13041F0A09141
:10085200670AA13021F0A091680AA13011F4E1E009
:1008620001C0E0E0E093690AE091CD0AE870E83067
:1008720049F4E0914D0BE03019F4E1E0E0934F0BC5
:10088200E1E003C0E0E0E0934F0BE0934D0BE09119
:10089200CC0AE093610BA091CB0A0E94BC1AE091B2
:1008A200CA0AF0E0EA0FFB1FE093630AF093640ABE
:1008B200E0910301E870E83009F03FC0159B03C0E6
:1008C2000E94C31A39C0E0915F0AF091600AE09376
:1008D200130AF093140AE091530AF091540AA0917A
:1008E200510AB091520AEA0FFB1FA091550AB0912A
:1008F200560AEA0FFB1FA091570AB091580AEA0F55
:10090200FB1FA091590AB0915A0AEA0FFB1FA0914E
:100912005B0AB0915C0AEA0FFB1FA0915D0AB091DD
:100922005E0AEA0FFB1F0E94D11AE091330BF0E03E
:10093200E093080AF093090A15C00E94D61AE091C2
:10094200100AF0E0E093130AF093140AE091110AFE
:10095200F0E00E94D11AE091120AF0E0E093080A56
:10096200F093090AE0910301E870E83009F03FC012
:10097200159B03C00E94E21A39C0E0913B0AF09134
:100982003C0AE093170AF093180AE0912F0AF091BB
:10099200300AA0912D0AB0912E0AEA0FFB1FA091F6
:1009A200310AB091320AEA0FFB1FA091330AB091CB
:1009B200340AEA0FFB1FA091350AB091360AEA0FFA
:1009C200FB1FA091370AB091380AEA0FFB1FA091D2
:1009D200390AB0913A0AEA0FFB1F0E94F01AE0911D
:1009E2002E0BF0E0E0930A0AF0930B0A15C00E9466
:1009F200F51AE0910C0AF0E0E093170AF093180A56
:100A0200E0910D0AF0E00E94F01AE0910F0AF0E086
:100A1200E0930A0AF0930B0AE0E0E093230BE093E1
:100A2200220BE093210BE093200BE0931F0BE0934A
:100A32001E0BE0931D0BE0931C0BE0931B0BE0934A
:100A42001A0BE093190BE093180BE093170BE0934A
:100A5200160BE093150BE093140BE093130BE0934A
:100A6200120BE093110BE093100BE0930F0BE0934A
:100A72000E0BE0930D0BE0930C0BE0930B0BE0934A
:100A82000A0BE093090BE093080BE093070BE0934A
:100A9200060BE093050BE093040BE093030BE0934A
:100AA200020BE093010BE093000BE093FF0AE0934B
:100AB200FE0AE093FD0AE093FC0AE093FB0AE0934E
:100AC200FA0AE093F90AE093F80AE093F70AE0934E
:100AD200F60AE093F50AE093F40AE093F30AE0934E
:100AE200F20AE093F10AE093F00AE093EF0AE0934E
:100AF200EE0AE093ED0AE093EC0AE093EB0AE0934E
:100B0200EA0AE093E90AE093E80AE093E70AE0934D
:100B1200E60AE093E50AE093E40AE093E30AE0934D
:100B2200E20AE093E10AE093E00AE093DF0AE0934D
:100B3200DE0AE093DD0AE093DC0AE093DB0AE0934D
:100B4200DA0AE093D90AE093D80AE093D70AE0934D
:100B5200D60A0E94051BE0E0E093660BE093670B68
:100B62006EC1E091220BE093230BE091210BE09305
:100B7200220BE091200BE093210BE0911F0BE093FD
:100B8200200BE0911E0BE0931F0BE0911D0BE093F5
:100B92001E0BE0911C0BE0931D0BE0911B0BE093ED
:100BA2001C0BE0911A0BE0931B0BE091190BE093E5
:100BB2001A0BE091180BE093190BE091170BE093DD
:100BC200180BE091160BE093170BE091150BE093D5
:100BD200160BE091140BE093150BE091130BE093CD
:100BE200140BE091120BE093130BE091110BE093C5
:100BF200120BE091100BE093110BE0910F0BE093BD
:100C0200100BE0910E0BE0930F0BE0910D0BE093B4
:100C12000E0BE0910C0BE0930D0BE0910B0BE093AC
:100C22000C0BE0910A0BE0930B0BE091090BE093A4
:100C32000A0BE091080BE093090BE091070BE0939C
:100C4200080BE091060BE093070BE091050BE09394
:100C5200060BE091040BE093050BE091030BE0938C
:100C6200040BE091020BE093030BE091010BE09384
:100C7200020BE091000BE093010BE091FF0AE0937D
:100C8200000BE091FE0AE093FF0AE091FD0AE09377
:100C9200FE0AE091FC0AE093FD0AE091FB0AE09370
:100CA200FC0AE091FA0AE093FB0AE091F90AE09368
:100CB200FA0AE091F80AE093F90AE091F70AE09360
:100CC200F80AE091F60AE093F70AE091F50AE09358
:100CD200F60AE091F40AE093F50AE091F30AE09350
:100CE200F40AE091F20AE093F30AE091F10AE09348
:100CF200F20AE091F00AE093F10AE091EF0AE09340
:100D0200F00AE091EE0AE093EF0AE091ED0AE09337
:100D1200EE0AE091EC0AE093ED0AE091EB0AE0932F
:100D2200EC0AE091EA0AE093EB0AE091E90AE09327
:100D3200EA0AE091E80AE093E90AE091E70AE0931F
:100D4200E80AE091E60AE093E70AE091E50AE09317
:100D5200E60AE091E40AE093E50AE091E30AE0930F
:100D6200E40AE091E20AE093E30AE091E10AE09307
:100D7200E20AE091E00AE093E10AE091DF0AE093FF
:100D8200E00AE091DE0AE093DF0AE091DD0AE093F7
:100D9200DE0AE091DC0AE093DD0AE091DB0AE093EF
:100DA200DC0AE091DA0AE093DB0AE091D90AE093E7
:100DB200DA0AE091D80AE093D90AE091D70AE093DF
:100DC200D80AE091D60AE093D70AE091D50AE093D7
:100DD200D60AE091D40AE093D50AE091D30AE093CF
:100DE200D40AE091D20AE093D30AE091D10AE093C7
:100DF200D20AE091D00AE093D10AE091CF0AE093BF
:100E0200D00AE091CE0AE093CF0AE091CD0AE093B6
:100E1200CE0AE091CC0AE093CD0AE091CB0AE093AE
:100E2200CC0AE091CA0AE093CB0AE091C90AE093A6
:100E3200CA0AE091C80AE093C90A0093C80AFEC22E
:100E42000E94AC1A1091C8000091CE00E12FEC7103
:100E5200E9F4E091A50BEF5FE093A50BE150F0E020
:100E6200E356F44F0083A091A50BA83019F4E0E0FB
:100E7200E093A50BA091A70BAF5FA093A70BA8309F
:100E820029F4E0E0E093A70B689422F8E091C60A07
:100E9200E093C70AE091C50AE093C60AE091C40A4A
:100EA200E093C50AE091C30AE093C40AE091C20A42
:100EB200E093C30AE091C10AE093C20AE091C00A3A
:100EC200E093C10AE091BF0AE093C00AE091BE0A32
:100ED200E093BF0AE091BD0AE093BE0AE091BC0A2A
:100EE200E093BD0AE091BB0AE093BC0AE091BA0A22
:100EF200E093BB0AE091B90AE093BA0AE091B80A1A
:100F0200E093B90AE091B70AE093B80AE091B60A11
:100F1200E093B70AE091B50AE093B60AE091B40A09
:100F2200E093B50AE091B30AE093B40AE091B20A01
:100F3200E093B30AE091B10AE093B20AE091B00AF9
:100F4200E093B10AE091AF0AE093B00AE091AE0AF1
:100F5200E093AF0AE091AD0AE093AE0AE091AC0AE9
:100F6200E093AD0AE091AB0AE093AC0AE091AA0AE1
:100F7200E093AB0AE091A90AE093AA0AE091A80AD9
:100F8200E093A90AE091A70AE093A80AE091A60AD1
:100F9200E093A70AE091A50AE093A60AE091A40AC9
:100FA200E093A50AE091A30AE093A40AE091A20AC1
:100FB200E093A30AE091A10AE093A20AE091A00AB9
:100FC200E093A10AE0919F0AE093A00AE0919E0AB1
:100FD200E0939F0AE0919D0AE0939E0AE0919C0AA9
:100FE200E0939D0AE0919B0AE0939C0AE0919A0AA1
:100FF200E0939B0AE091990AE0939A0AE091980A99
:10100200E093990AE091970AE093980AE091960A90
:10101200E093970AE091950AE093960AE091940A88
:10102200E093950AE091930AE093940AE091920A80
:10103200E093930AE091910AE093920AE091900A78
:10104200E093910AE0918F0AE093900AE0918E0A70
:10105200E0938F0AE0918D0AE0938E0AE0918C0A68
:10106200E0938D0AE0918B0AE0938C0AE0918A0A60
:10107200E0938B0AE091890AE0938A0AE091880A58
:10108200E093890AE091870AE093880AE091860A50
:10109200E093870AE091850AE093860AE091840A48
:1010A200E093850AE091830AE093840AE091820A40
:1010B200E093830AE091810AE093820AE091800A38
:1010C200E093810AE0917F0AE093800AE0917E0A30
:1010D200E0937F0AE0917D0AE0937E0AE0917C0A28
:1010E200E0937D0AE0917B0AE0937C0AE0917A0A20
:1010F200E0937B0AE091790AE0937A0AE091780A18
:10110200E093790AE091770AE093780AE091760A0F
:10111200E093770AE091750AE093760AE091740A07
:10112200E093750AE091730AE093740AE091720AFF
:10113200E093730AE091710AE093720AE091700AF7
:10114200E093710AE0916F0AE093700AE0916E0AEF
:10115200E0936F0AE0916D0AE0936E0AE0916C0AE7
:10116200E0936D0A00936C0AA091730AA030C1F457
:10117200A091720AA13FA1F4A091710AA03281F458
:10118200A091700AAB3C61F4A0916E0AA43241F4C2
:10119200A0916D0AA03021F4A0916C0AA03009F050
:1011A20005C0E1E0E093830B0E94231BA091740A27
:1011B200A030E1F4A091730AA036C1F4A091720AA2
:1011C200A032A1F4A091710AA83281F4A0916F0A11
:1011D200A43261F4A0916E0AA13041F4A0916D0A8B
:1011E200A03021F4A0916C0AA03009F005C0E1E022
:1011F200E093850B0E94351BA091740AA030E1F4A4
:10120200A091730AA136C1F4A091720AA032A1F48E
:10121200A091710AA83281F4A0916F0AA43261F4FC
:10122200A0916E0AA13041F4A0916D0AA03021F480
:10123200A0916C0AA03009F005C0E1E0E0938A0BAE
:101242000E94351BA091740AA030E1F4A091730AA8
:10125200A136C1F4A091720AA032A1F4A091710A40
:10126200A83281F4A0916F0AA43261F4A0916E0AAF
:10127200A13041F4A0916D0AA03021F4A0916C0A32
:10128200A43009F005C0E1E0E093890B0E94351B10
:10129200A091740AA030C1F4A091730AA236A1F4FD
:1012A200A091720AA03281F4A091710AA83261F46D
:1012B200A0916F0AA43241F4A0916E0AA13021F4E8
:1012C200A0916D0AA03009F009C0E0916C0AE09388
:1012D2008C0BE1E0E093880B0E94351BA091760A0B
:1012E200A030C1F4A091750AA336A1F4A091740AAA
:1012F200A03281F4A091730AA83261F4A091710A1C
:10130200A43241F4A091700AA33021F4A0916F0A93
:10131200A03009F01DC0E0916E0AE093560BA09137
:10132200560BA03219F40E94C1000BC0E0916D0A65
:10133200E093500BE0916C0AE093510BE1E0E093F3
:10134200570BE0E0E093D20AE093D10A0E94351BEA
:10135200A091740AA030E1F4A091730AA436C1F4FA
:10136200A091720AA032A1F4A091710AA83281F46C
:10137200A0916F0AA43261F4A0916E0AA13041F4E7
:10138200A0916D0AA03021F4A0916C0AA13009F05D
:1013920005C0E1E0E093860B0E94351BA091790A1B
:1013A200A030C1F4A091780AA536A1F4A091770AE1
:1013B200A03281F4A091760AA83261F4A091740A55
:1013C200A43241F4A091730AA63021F4A091720ACA
:1013D200A03009F033C0E091710AE0930C0AE09169
:1013E200700AE0930D0AE0916F0AE0930F0AE09110
:1013F2006E0AE093100AE0916D0AE093110AE091FF
:101402006C0AE093120AE091100AEA93E091110A41
:10141200EA93A091120A0E94471AE5E0EA93E0914A
:101422000F0AEA93E0910D0AEA93A0910C0A0E9436
:10143200721AE1E0E093870B0E94051B0991199152
:10144200E991EFBFF991E991B991A99199918991A6
:1014520079916991F9901990099018951A931A2F18
:10146200E091C800E072E1F31093CE0031C40A9219
:101472001A92AA93BA93EA93FA93EFB7EA931A935A
:101482000A931091D0000091D600E12FEC71E9F49B
:10149200E091B00BEF5FE093B00BE150F0E0E85564
:1014A200F44F0083A091B00BA83019F4E0E0E09370
:1014B200B00BA091B20BAF5FA093B20BA83029F48E
:1014C200E0E0E093B20B689423F8E0912C0BE093F8
:1014D2002D0BE0912B0BE0932C0BE0912A0BE09368
:1014E2002B0BE091290BE0932A0BE091280BE09360
:1014F200290BE091270BE093280BE091260BE09358
:10150200270BE091250BE093260BE091240BE0934F
:10151200250B0093240BA0912A0BA13061F4A0911A
:10152200290BA33041F4A091280BA23021F4A09101
:101532008D0BA13009F017C0E091270BE0933A0B15
:10154200E091260BE0933B0BA0913A0B0E94BC1A50
:10155200E0913B0BF0E0EA0FFB1FE0933F0BF093AF
:10156200400B0E94391BA0912A0BA13061F4A0917B
:10157200290BA33041F4A091280BA23021F4A091B1
:101582008D0BA23009F01BC0E091270BE0933C0BBE
:10159200E091260BE0933D0BA0913C0B0E94BC1AFC
:1015A200E0913D0BF0E0AE0FBF1FEAE0F0E00E94D9
:1015B2007D1CE093410BF093420B0E94391BA091DA
:1015C2002A0BA13081F4A091290BA33061F4A091E0
:1015D200280BA23041F4A091270BA03021F4A09156
:1015E2008D0BA33009F00DC0E091260BE0933E0B6A
:1015F200EF7111F4E0E001C0E1E0E093430B0E94DF
:10160200391B09911991E991EFBFF991E991B991CA
:10161200A9911990099018951A931A2FE091D00068
:10162200E072E1F31093D60053C3AA93BA93EA93FC
:10163200FA93EFB7EA93E1E0F0E0DE0EEF1EE2ED9F
:10164200F2E0DE16EF0654F0A0E0BAE00E94471B7B
:10165200DD24EE24A4E0BAE00E94471BA091000A18
:10166200B091010A1A97CCF1E0E0E093000AE0930E
:10167200010AA6E0BAE00E94471BA091660BB09156
:10168200670B989740F0E8E2F0E0E093660BF09386
:10169200670BF79A05C0A6E6BBE00E94471BF798C6
:1016A200A091680BB091690B549740F0E4E1F0E02F
:1016B200E093680BF093690B689405C0A8E6BBE061
:1016C2000E94471BE89420F8E0914E0BE03011F4A1
:1016D200E1E001C0E0E0E0934E0BA091060AB09178
:1016E200070A16978CF0E0E0E093060AE093070AF7
:1016F200459B02C0459801C0459AE1E0E093580B32
:10170200E093840BF19A0CC0E8E0F0E0E715F805ED
:101712001CF47724882404C0E1E0F0E07E0E8F1EE2
:10172200A091040AB091050A16973CF1469B02C0AB
:10173200469801C0469AE0E0E093040AE093050A65
:10174200E1E0E0938B0BA0918E0BA13099F4A09174
:101752008F0BA03548F0E093900BE0E5E0938F0B00
:10176200E0E0E0938E0B05C0E0918F0BEF5FE0931A
:101772008F0B03C0E0E0E0938F0BE991EFBFF9918B
:10178200E991B991A991189584E08A95F1F7439A64
:1017920084E08A95F1F743980895739A8FE68A95C3
:1017A200F1F7A0918D0BA43010F0E1E003C0E091BD
:1017B2008D0BEF5FE0938D0BA0918D0BA13049F45F
:1017C2000E944D1BA8EC0E94561BAEE025DFA0E74D
:1017D20023DFA0918D0BA23049F40E944D1BA4EC93
:1017E2000E94561BAEEC18DFA3E716DFA0918D0B0B
:1017F200A33069F4A1E010DFA3E00EDFADE20CDF5D
:10180200A3E70E94561BACE707DFADEB05DF88ECD0
:1018120093E00197F1F77398E0E0E0938B0B089562
:10182200729AA1E0B0E00E94271D0E945E1BA0E018
:101832000E948B1AA091560BAF3FE9F4A091500B76
:10184200AF3F21F4A091510BAF3F09F005C0EFEF7C
:10185200E093520BE093530BA091500BA03021F474
:10186200A091510BA03009F005C0E0E0E093520BCB
:10187200E093530B04C1E091540BE093520BE091BF
:10188200550BE093530BA091560BAE3071F4E091DF
:10189200510BE072E03221F4E091520BE06103C09F
:1018A200E091520BEF7EE093520BA091560BAD30BC
:1018B20071F4E091510BE071E03121F4E091530BAE
:1018C200E06403C0E091530BEF7BE093530BA091D4
:1018D200560BAC3071F4E091510BE870E83021F412
:1018E200E091520BE06203C0E091520BEF7DE09376
:1018F200520BA091560BAB3071F4E091510BE47096
:10190200E43021F4E091530BE86003C0E091530B03
:10191200E77FE093530BA091560BAA3071F4E0914C
:10192200510BE270E23021F4E091520BE06403C00B
:10193200E091520BEF7BE093520BA091560BA93032
:1019420071F4E091510BE170E13021F4E091520B1E
:10195200E86003C0E091520BE77FE093520BA09145
:10196200560BA83071F4E091500BE078E03821F486
:10197200E091520BE46003C0E091520BEB7FE093E5
:10198200520BA091560BA73071F4E091500BE0740A
:10199200E03421F4E091530BE06103C0E091530B7A
:1019A200EF7EE093530BA091560BA63071F4E091B9
:1019B200500BE072E03221F4E091530BE46003C07B
:1019C200E091530BEB7FE093530BA091560BA530A4
:1019D20071F4E091500BE071E03121F4E091530B8E
:1019E200E06203C0E091530BEF7DE093530BA091B3
:1019F200560BA43071F4E091500BE870E83021F4FA
:101A0200E091520BE26003C0E091520BED7FE09354
:101A1200520BA091560BA33071F4E091500BE4707D
:101A2200E43021F4E091520BE16003C0E091520BEB
:101A3200EE7FE093520BA091560BA23071F4E0912D
:101A4200500BE270E23021F4E091530BE26003C0EC
:101A5200E091530BED7FE093530BA091560BA13015
:101A620071F4E091500BE170E13021F4E091530BFD
:101A7200E16003C0E091530BEE7FE093530BE091E2
:101A8200520BE093540BE091530BE093550BA09152
:101A9200520B0E948B1AA091530B0E948B1AE0E00A
:101AA200E093530BE093520BE093510BE093500BF6
:101AB2000E94641B0E946D1BA1E0B0E00E94271DE2
:101AC2007298E0E0E093570B0895729A84E191E0F6
:101AD2000197F1F70E945E1BA5E50E948B1AAAEA04
:101AE2000E948B1A0E94641BA0E00E948B1A0E9423
:101AF2006D1B89E292E00197F1F77298E0E0E093C2
:101B0200580B08951A930A938D01F8013097B9F092
:101B1200E130A0E0FA0719F4429A419812C0E2308B
:101B2200A0E0FA0721F4429A419A40980BC0E330B0
:101B3200A0E0FA0721F442984198409803C04298E5
:101B4200419A409A84E08A95F1F7449A5524662492
:101B5200E4E0F0E05E166F0634F416DEE1E0F0E059
:101B62005E0E6F1EF5CFE42DE870E83011F4449A52
:101B720001C0449809DEE42DE470E43011F4449A83
:101B820001C0449801DEE42DE270E23011F4449A7F
:101B920001C04498F9DDE42DE170E13011F4449A7A
:101BA20001C04498F1DDE32DE078E03811F4449A65
:101BB20001C04498E9DDE32DE074E03411F4449A65
:101BC20001C04498E1DDE32DE072E03211F4449A61
:101BD20001C04498D9DDE32DE071E03111F4449A5B
:101BE20001C04498D1DDE32DE870E83011F4449A45
:101BF20001C04498C9DDE32DE470E43011F4449A45
:101C020001C04498C1DDE32DE270E23011F4449A40
:101C120001C04498B9DDE32DE170E13011F4449A3A
:101C220001C04498B1DD84E08A95F1F7429A419A65
:101C3200409A84E08A95F1F70991199108951A93CF
:101C42001A2FE12FF0E0309719F4EEE73E2E40C054
:101C5200E130A0E0FA0719F4E0E33E2E39C0E230A9
:101C6200A0E0FA0719F4EDE63E2E32C0E330A0E020
:101C7200FA0719F4E9E73E2E2BC0E430A0E0FA0798
:101C820019F4E3E33E2E24C0E530A0E0FA0719F48C
:101C9200EBE53E2E1DC0E630A0E0FA0719F4EFE5B1
:101CA2003E2E16C0E730A0E0FA0719F4E0E73E2E18
:101CB2000FC0E830A0E0FA0719F4EFE73E2E08C0A3
:101CC200E930A0E0FA0719F4EBE73E2E01C0332415
:101CD200199108950E94731BE3E031C00E94731BA7
:101CE200E2E00E94781B29F0E1E0F0E0EB15FC0550
:101CF20011F4E0E83E2A0B2C0C2811F4E0E83E2A0D
:101D020021C00E94731BE1E01AC00E94731BE6E02F
:101D120016C00E94731BE5E00E94781B29F0E1E0E7
:101D2200F0E0EB15FC0511F4E0E83E2A0B2C0C2840
:101D320011F4E0E83E2A06C00E94731BE4E04E2E36
:101D4200A02F7DDF912EAA24A92DBA2DDBDE1981C9
:101D5200088123960895429A419A409A0E94801BD4
:101D62000895589A5C9A429A419A409AEFE00E94EA
:101D7200971B0E94801BECE00E94971BEFE04E2E07
:101D82003324A3E0B0E0BEDEE3E0F0E0BE2ECF2ECF
:101D9200E8E00E949E1BE8E00E94A21BE8E0EA93B2
:101DA200AB2DAFDFE8E00E94A61BE8E00E94AA1B71
:101DB200E8E0EA93AB2DC0DF2D9A1498159A169895
:101DC200179A74987598769A779A459A469AAAEFCE
:101DD200B0E00E94271D2D98AEEEB2E00E94271DB2
:101DE200149A1598169A1798749A759A76987798FD
:101DF2005898A8EEB3E00E94271D149815981698DB
:101E020017987698779874987598589A72987398E4
:101E1200F09AE1E0E0938E0BEFEFE093540BE09346
:101E2200550B0895159B04C00E94C31A0E94E21A22
:101E3200BB24CC240E94AE1BA436E0E0BE0788F48B
:101E4200E0E00E949E1B0E94AE1B1A9710F4E0E095
:101E520004C00E94AE1B0E94B31BEA93AB2D3EDF6F
:101E620015C00E94B81B3A9718F40E94B81B01C013
:101E7200E0E0EA93AB2D2EDF0E94B81B0E94BE1B4E
:101E82000E94AE1B0E94C31B0E94A21BE091130A78
:101E9200F091140A309711F4E0E004C00E94AE1BE6
:101EA2000E94C61BEA93AB2D2CDF0E94CB1BA436EB
:101EB200E0E0BE0788F4E0E00E94A61B0E94CB1B74
:101EC2001A9710F4E0E004C00E94CB1B0E94B31BDF
:101ED200EA93AB2D1EDF15C00E94D01B3A9718F46F
:101EE2000E94D01B01C0E0E0EA93AB2D0EDF0E94FE
:101EF200D01B0E94BE1B0E94CB1B0E94C31B0E94D0
:101F0200AA1BE091170AF091180A309711F4E0E049
:101F120004C00E94CB1B0E94C61BEA93AB2D0CDFB0
:101F2200E1E0F0E0BE2ECF2E0E94D61BA436E0E008
:101F3200BE0788F4E0E00E949E1B0E94D61B1A97FF
:101F420010F4E0E004C00E94D61B0E94B31BEA9387
:101F5200AB2DC4DE15C00E94DB1B3A9718F40E9419
:101F6200DB1B01C0E0E0EA93AB2DB4DE0E94DB1B79
:101F72000E94BE1B0E94D61B0E94C31B0E94A21B72
:101F8200E091150AF091160A309711F4E0E004C0CE
:101F92000E94D61B0E94C61BEA93AB2DB2DE0E94A2
:101FA200E11BA436E0E0BE0788F4E0E00E94A61B35
:101FB2000E94E11B1A9710F4E0E004C00E94E11BAA
:101FC2000E94B31BEA93AB2DA4DE15C00E94E61B50
:101FD2003A9718F40E94E61B01C0E0E0EA93AB2DA9
:101FE20094DE0E94E61B0E94BE1B0E94E11B0E941F
:101FF200C31B0E94AA1BE091190AF0911A0A30979A
:1020020011F4E0E004C00E94E11B0E94C61BEA93A7
:10201200AB2D92DEE2E0F0E0BE2ECF2E0E94EC1B52
:10202200A436E0E0BE0724F5E0E00E949E1B0E9479
:10203200EC1B1A9714F4E0E006C00E94EC1BEAE0E5
:10204200F0E00E94951CEA93AB2D48DEE091080A6D
:10205200F091090A309711F4E0E006C00E94EC1BEF
:10206200EAE0F0E00E949D1CEA93AB2D4ADE0AC032
:10207200E1E00E949E1BE0E00E94A21BE0E0EA93E6
:10208200AB2D3FDE0E94F11BA436E0E0BE0724F533
:10209200E0E00E94A61B0E94F11B1A9714F4E0E0F4
:1020A20006C00E94F11BEAE0F0E00E94951CEA9350
:1020B200AB2D2FDEE0910A0AF0910B0A309711F452
:1020C200E0E006C00E94F11BEAE0F0E00E949D1CE5
:1020D200EA93AB2D31DE0AC0E1E00E94A61BE0E0EC
:1020E2000E94AA1BE0E0EA93AB2D26DE0895A8E346
:1020F200B5D9A1EF0E94F61BA0917A0B0E94FE1B9C
:102102000E94031CA0917A0BAF3F10F0E0E003C0E5
:10211200E0917A0BEF5FE0937A0BE0E0E093830BC0
:102122000895A8E39BD9A3EF0E94F61BA0917D0B13
:102132000E94FE1B0E94091CE0E0E093460B20FC7B
:102142000EC0A091640BA13051F0A091650BA1309B
:1021520031F0F29904C0F39902C0159B04C0E091DA
:10216200460BE06803C0E091460BEF77E093460B25
:10217200A091430BA13011F420FE01C004C0E091F4
:10218200460BE06203C0E091460BEF7DE093460B05
:10219200A091770BA13041F0A091750BA13021F0F5
:1021A200A091790BA13021F4E091460BE06103C0CC
:1021B200E091460BEF7EE093460BA091760BA130A7
:1021C20041F0A091740BA13021F0A091780BA130C5
:1021D20021F4E091460BE86003C0E091460BE77FF3
:1021E200E093460BA091730BA13011F4E46003C09D
:1021F200E091460BEB7FE093460BA091720BA1306E
:1022020011F4E26003C0E091460BED7FE093460BD0
:10221200A091690AA13011F4E16003C0E091460B7C
:10222200EE7FE093460BA091460B18D9A0917D0B4F
:10223200AF3F10F0E0E003C0E0917D0BEF5FE09371
:102242007D0BE0E0E093840B0895A8E307D9A0E0BA
:102252000E94F61BA0917F0B0E94FE1BA1E0FED8FC
:102262000E94031CA0917F0BAF3F10F0E0E003C07F
:10227200E0917F0BEF5FE0937F0BE0E0E093850B53
:102282000895A8E3EBD8A3E00E94F61BA0917B0B74
:102292000E94FE1BA7E00E940F1CA2E0B0E00E9479
:1022A200141CA4E0B0E00E94141CA6E0B0E00E945E
:1022B200141CA7E0B0E00E94141CA9E0B0E00E9448
:1022C200141CABE0B0E00E94141CA1E0C7D8A0919E
:1022D2007B0BAF3F10F0E0E003C0E0917B0BEF5FC0
:1022E200E0937B0BE0E0E093860B0895A8E3B6D879
:1022F200A4E00E94F61BA0917E0B0E94FE1B0E948E
:10230200091CA1E0ABD8A0917E0BAF3F10F0E0E03A
:1023120003C0E0917E0BEF5FE0937E0BE0E0E09381
:10232200870B08950E94191CA091810B0E94FE1B2D
:10233200A2E00E940F1C0E94091CA091810BAF3FDA
:1023420010F0E0E003C0E091810BEF5FE093810BBE
:10235200E0E0E0938A0B08950E94191CA091800B83
:102362000E94FE1BA2E00E940F1CA5E077D8A0915C
:10237200800BAF3F10F0E0E003C0E091800BEF5F15
:10238200E093800B20FC0EC0A091640BA13051F0B1
:10239200A091650BA13031F0F29904C0F39902C00B
:1023A200159B04C0E091460BE06803C0E091460B28
:1023B200EF77E093460BA091430BA13011F4E0625A
:1023C20003C0E091460BEF7DE093460BA091770BA3
:1023D200A13041F0A091750BA13021F0A091790BB1
:1023E200A13021F4E091460BE06103C0E091460B7D
:1023F200EF7EE093460BA091760BA13041F0A091C5
:10240200740BA13021F0A091780BA13021F4E0915E
:10241200460BE86003C0E091460BE77FE093460B72
:10242200A091730BA13011F4E46003C0E091460B5C
:10243200EB7FE093460BA091720BA13011F4E260A6
:1024420003C0E091460BED7FE093460BA091690A31
:10245200A13011F4E16003C0E091460BEE7FE093FE
:10246200460BA091450B0E942F0AA091800BAF3F13
:1024720010F0E0E003C0E091800BEF5FE093800B8F
:10248200E0E0E093890B0895A8E30E942F0AA2E0FE
:102492000E94F61BA0917C0B0E94FE1BA2E00E94F0
:1024A2000F1CA0918C0B0E942F0A20FE04C00E94D8
:1024B2001E1CE06203C00E941E1CEF7DE0936A0BAB
:1024C200F0936B0BF39B04C00E941E1CE06103C0DF
:1024D2000E941E1CEF7EE0936A0BF0936B0BF29B43
:1024E20004C00E941E1CE86003C00E941E1CE77FFD
:1024F200E0936A0BF0936B0BE091630BE078E038AA
:1025020021F00E941E1CE46003C00E941E1CEB7F8F
:10251200E0936A0BF0936B0BE091620BE078E0388A
:1025220021F00E941E1CE26003C00E941E1CED7F6F
:10253200E0936A0BF0936B0BF79902C0F69B04C011
:102542000E941E1CE16003C00E941E1CEE7FE093ED
:102552006A0BF0936B0B20FE02C0E0E044C0E091F6
:102562003E0BE071E03121F4E091710BE06103C0B8
:10257200E091710BEF7EE093710BE0913E0BE870FE
:10258200E83021F4E091710BE86003C0E091710B37
:10259200E77FE093710BE0913E0BE470E43021F4AD
:1025A200E091710BE46003C0E091710BEB7FE0936B
:1025B200710BE0913E0BE270E23021F4E091710B7D
:1025C200E26003C0E091710BED7FE093710BE0914B
:1025D2003E0BE170E13021F4E091710BE16003C048
:1025E200E091710BEE7FE093710BA091750BA1301E
:1025F20021F4E091700BE46003C0E091700BEB7F7B
:10260200E093700BA091790BA13011F4E26003C04A
:10261200E091700BED7FE093700BA091770BA130EE
:1026220011F4E16003C0E091700BEE7FE093700B58
:10263200A091740BA13021F4E0916F0BE46003C010
:10264200E0916F0BEB7FE0936F0BA091780BA130C1
:1026520011F4E26003C0E0916F0BED7FE0936F0B2A
:10266200A091760BA13011F4E16003C0E0916F0BF1
:10267200EE7FE0936F0BE091340BE078E03811F4D9
:10268200E1E001C0E0E0E0936E0BE0912F0BE07817
:10269200E03811F4E1E001C0E0E0E0936D0BA091BD
:1026A200690AA13011F4E1E001C0E0E0E0936C0BB3
:1026B200E0910301E270E230C1F0E0E8F0E0E09383
:1026C2006A0BF0936B0BE0E2E093710BE0E1E093B5
:1026D200700BE8E0E0936F0BE4E0E0936E0BE2E056
:1026E200E0936D0BE1E0E0936C0BE0918C0BE078F2
:1026F200E03821F4A0916A0B0E942F0AE0918C0B22
:10270200E072E03221F4A091710B0E942F0AE09155
:102712008C0BE071E03121F4A091700B0E942F0A22
:10272200E0918C0BE870E83021F4A0916F0B0E94CD
:102732002F0AE0918C0BE470E43021F4A0916E0B2F
:102742000E942F0AE0918C0BE270E23021F4A091FA
:102752006D0B0E942F0AE0918C0BE170E13021F4A5
:10276200A0916C0B0E942F0AA0917C0BAF3F10F03E
:10277200E0E003C0E0917C0BEF5FE0937C0BE0E0D4
:10278200E093880B0895A8E30E942F0AA6EF0E9407
:10279200F61BA091820B0E94FE1BAAE20E940F1C54
:1027A200F49902C0F59B02C0A4E002C0A091610BA3
:1027B2000E942F0AE0910301E470E43009F4CEC0D4
:1027C200E2ECF1E0E0933F0BF093400BE4E6F0E043
:1027D200E093410BF093420BE8E1F1E0E0933B0A16
:1027E200F0933C0AE5E6F0E00E94D11AE8E1F1E05C
:1027F200E0935F0AF093600AE6E6F0E00E94F01AC6
:10280200E9E1F1E0E0931B0AF0931C0AEAE1F1E04E
:10281200E0931D0AF0931E0AEBE1F1E0E0931F0A38
:10282200F093200AECE1F1E0E093210AF093220A0E
:10283200EDE1F1E0E093230AF093240AEEE1F1E006
:10284200E093250AF093260AEFE1F1E0E093270AEC
:10285200F093280AE9E1F1E0E0933F0AF093400A9D
:10286200EAE1F1E0E093410AF093420AEBE1F1E0A0
:10287200E093430AF093440AECE1F1E0E093450A65
:10288200F093460AEDE1F1E0E093470AF093480A3B
:10289200EEE1F1E0E093490AF0934A0AEFE1F1E058
:1028A200E0934B0AF0934C0AE7E9F0E0E0932D0A3B
:1028B200F0932E0AE8E9F0E0E0932F0AF093300A51
:1028C200E9E9F0E0E093310AF093320AEAE9F0E054
:1028D200E093330AF093340AEBE9F0E0E093350A2F
:1028E200F093360AECE9F0E0E093370AF093380A05
:1028F200EDE9F0E0E093390AF0933A0AE7E9F0E013
:10290200E093510AF093520AE8E9F0E0E093530AA7
:10291200F093540AE9E9F0E0E093550AF093560A7D
:10292200EAE9F0E0E093570AF093580AEBE9F0E0A5
:10293200E093590AF0935A0AECE9F0E0E0935B0A5B
:10294200F0935C0AEDE9F0E0E0935D0AF0935E0A31
:10295200E8E2E0932E0BE0E5E093330BA0913B0A13
:10296200B0913C0AA739E0E0BE0710F0159B01C008
:1029720004C0A0913B0AA65901C0A0E00E942F0A00
:10298200159909C0E091190AAE2F0E942F0AE09111
:102992001A0AAE2F04C0A0E00E942F0AA0E00E94F3
:1029A2002F0AA0915F0AB091600AA739E0E0BE0742
:1029B20010F0159B01C004C0A0915F0AA65901C086
:1029C200A0E00E942F0A159909C0E091150AAE2FC6
:1029D2000E942F0AE091160AAE2F04C0A0E00E94C6
:1029E2002F0AA0E00E942F0AA0913F0AB091400A4C
:1029F200A739E0E0BE0710F0159B01C004C0A0910A
:102A02003F0AA65901C0A0E00E942F0A159903C0EF
:102A1200A091510A01C0A0E00E942F0AA091410A90
:102A2200B091420AA739E0E0BE0710F0159B01C041
:102A320004C0A091410AA65901C0A0E00E942F0A39
:102A4200159903C0A091530A01C0A0E00E942F0A69
:102A5200A0911B0AB0911C0AA739E0E0BE0710F052
:102A6200159B01C004C0A0911B0AA65901C0A0E099
:102A72000E942F0A159903C0A0912D0A01C0A0E05F
:102A82000E942F0AA0911D0AB0911E0AA739E0E008
:102A9200BE0710F0159B01C004C0A0911D0AA659E3
:102AA20001C0A0E00E942F0A159903C0A0912F0A2D
:102AB20001C0A0E00E942F0AA091490AB0914A0ADF
:102AC200A739E0E0BE0710F0159B01C004C0A09139
:102AD200490AA65901C0A0E00E942F0A159903C015
:102AE200A0915B0A01C0A0E00E942F0AA091430AB4
:102AF200B091440AA739E0E0BE0710F0159B01C06F
:102B020004C0A091430AA65901C0A0E00E942F0A66
:102B1200159903C0A091550A01C0A0E00E942F0A96
:102B2200A091470AB091480AA739E0E0BE0710F029
:102B3200159B01C004C0A091470AA65901C0A0E09C
:102B42000E942F0A159903C0A091590A01C0A0E062
:102B52000E942F0AA0911F0AB091200AA739E0E033
:102B6200BE0710F0159B01C004C0A0911F0AA65910
:102B720001C0A0E00E942F0A159903C0A091310A5A
:102B820001C0A0E00E942F0A15991EC0A0912B0A35
:102B9200B0912C0AA739E0E0BE0710F4A0E003C010
:102BA200A0912B0AA6590E942F0AA0913D0AB0912A
:102BB2003E0AAF3FE0E0BE0710F0AFEF02C0A091C7
:102BC2003D0A0E942F0A02C00E94031CA091210A02
:102BD200B091220AA739E0E0BE0710F0159B01C0B0
:102BE20004C0A091210AA65901C0A0E00E942F0AA8
:102BF200159903C0A091330A01C0A0E00E942F0AD8
:102C0200A091270AB091280AA739E0E0BE0710F088
:102C1200159B01C004C0A091270AA65901C0A0E0DB
:102C22000E942F0A159903C0A091390A01C0A0E0A1
:102C32000E942F0A15991EC0A0914F0AB091500A06
:102C4200A739E0E0BE0710F4A0E003C0A0914F0A4C
:102C5200A6590E942F0AA091610AB091620AAF3F61
:102C6200E0E0BE0710F0AFEF02C0A091610A0E943F
:102C72002F0A02C00E94031CA091450AB091460A85
:102C8200A739E0E0BE0710F0159B01C004C0A09177
:102C9200450AA65901C0A0E00E942F0A159903C057
:102CA200A091570A01C0A0E00E942F0AA091250A14
:102CB200B091260AA739E0E0BE0710F0159B01C0CB
:102CC20004C0A091250AA65901C0A0E00E942F0AC3
:102CD200159903C0A091370A01C0A0E00E942F0AF3
:102CE200A0914B0AB0914C0AA739E0E0BE0710F060
:102CF200159B01C004C0A0914B0AA65901C0A0E0D7
:102D02000E942F0A159903C0A0915D0A01C0A0E09C
:102D12000E942F0AA091230AB091240AA739E0E069
:102D2200BE0710F0159B01C004C0A091230AA6594A
:102D320001C0A0E00E942F0A159903C0A091350A94
:102D420001C0A0E00E942F0A159903C0A0912E0B8A
:102D520001C0A0E00E942F0A159903C0A091330B75
:102D620001C0A0E00E942F0A20FE0BC0E0E0E09329
:102D72003F0BE093400BA0913F0B0E940F1CA0E081
:102D82001DC0A0913F0BB091400BAF35E1E0BE07F3
:102D920020F0A0913F0BAE5501C0A0E00E942F0A87
:102DA200E091410BAE2F0E942F0AA091410BB091EE
:102DB200420BEFEFF0E00E94821CAE2F0E942F0A1E
:102DC200A091820BAF3F10F0E0E003C0E091820BD4
:102DD200EF5FE093820B0895E0E8E0936100E0E0AA
:102DE200E0936100E0EFE1B9E0E0E2B9E0E6E4B9E6
:102DF200E1E0E5B9EFE7E7B9E0E0E8B9E3E1EAB934
:102E0200E0E0EBB9ECEFEDB9E0E0EEB9E0BBE1BB3D
:102E1200E3BBE4BBE0930101E0930201E093040110
:102E2200E0930501E0930701E0930801E0930A01B2
:102E3200E0930B01E4BDE1E0E5BDE0E0E6BDE7BD06
:102E4200E8BDE3E2E0938000E9E1E0938100E0E0A5
:102E5200E0938500E0938400E0938700E09386008E
:102E6200E5E1E0938900E9E9E0938800EAE0E09394
:102E72008B00ECECE0938A00E0E0E0938D00E093BD
:102E82008C00E093B600E093B000E093B100E093D1
:102E9200B200E093B300E093B400E0939000E093BB
:102EA2009100E0939500E0939400E0939700E09303
:102EB2009600E0939900E0939800E0939B00E093E2
:102EC2009A00E0939D00E0939C00E093A000E093C1
:102ED200A100E093A500E093A400E093A700E09393
:102EE200A600E093A900E093A800E093AB00E09372
:102EF200AA00E093AD00E093AC00E0932001E093E0
:102F02002101E0932501E0932401E0932701E0935E
:102F12002601E0932901E0932801E0932B01E0933D
:102F22002A01E0932D01E0932C01E1E0E0936E0091
:102F3200E0E0E0936F00E0937000E0937100E093B3
:102F42007200E0937300E0936900E0936A00EDBBC6
:102F5200E0936B00E0936C00E0936D00E0936800F7
:102F6200E093C000E8E9E093C100E6E0E093C2002C
:102F7200E0E0E093C500E5E0E093C400E0E0E09328
:102F8200C800E8E9E093C900E6E0E093CA00E0E0A7
:102F9200E093CD00E5E0E093CC00E0E0E093D000E8
:102FA200E8E9E093D100E6E0E093D200E0E0E093CC
:102FB200D500EBE0E093D400E0E0E0933101E0E8FB
:102FC200E0BFE0E0E0937B00E0937F00E0937A00D3
:102FD200ECBDE093BC0078940E94D61CE0E0EA933A
:102FE200E1E0EA93A0E02ED2E0E0EA93EA93A0E0E7
:102FF2004DD2E1E0EA93EA93EA93A4E172D20E940D
:10300200B20EA2E0BAE00E94471BA091020AB09160
:10301200030A13973CF0E0E0E093020AE093030A0C
:103022000E94130FF79902C0189B01C00FC0A09114
:10303200640BA03059F4A091900BA13039F4A09107
:10304200610BA13011F0A23009F401C037C0F2992E
:1030520011C0E0912F0BE078E03861F0A091740B81
:10306200A13041F0A091760BA13021F0A091780B14
:10307200A13091F4769A7498A0915B0BA03021F460
:10308200A0915D0BA03009F003C0E1E0E0935D0B7D
:10309200E1E0E0935B0B11C07698F49B02C0749A56
:1030A20007C0A0914E0BA13011F4749A01C074981C
:1030B200E0E0E0935B0BE0935D0B02C076987498BE
:1030C200F79902C0189B01C00FC0A091650BA030F8
:1030D20059F4A091900BA13039F4A091610BA13069
:1030E20011F0A23009F401C037C0F39911C0E09188
:1030F200340BE078E03861F0A091750BA13041F01B
:10310200A091770BA13021F0A091790BA13091F41D
:10311200779A7598A0915C0BA03021F4A0915E0B78
:10312200A03009F003C0E1E0E0935E0BE1E0E09340
:103132005C0B11C07798F59B02C0759A07C0A091ED
:103142004E0BA13011F4759A01C07598E0E0E0933E
:103152005C0BE0935E0B02C077987598A091610BAF
:10316200A13019F0A23009F04CC0F79904C0A09127
:10317200690AA13021F4A091900BA13011F0189BA3
:103182000EC01498159AF69904C0A091590BA0305C
:1031920009F003C0E1E0E093590BF69A06C0149AD5
:1031A2001598F698E0E0E093590B20FC04C0A0913A
:1031B200430BA13021F4A091900BA13009F010C073
:1031C200179A1698A091440BA03021F4A0915A0BA3
:1031D200A03009F003C0E1E0E0935A0BE1E005C042
:1031E200169A1798E0E0E0935A0BE093440BE091B3
:1031F200910BE03029F4E1E0E0938E0BE093910B28
:103202000DC014981598179816980E94C100E0E016
:10321200E093910BE0938E0BE093900BA091570BF0
:10322200A13011F40E94110CA0914F0BA13059F55D
:103232000E94F51A0E94D61AE0910C0AA2E0B0E0B0
:103242000E94C51CE0910D0AA4E0B0E00E94C51CDA
:10325200E0910F0AA6E0B0E00E94C51CE091100ABE
:10326200A7E0B0E00E94C51CE091110AA9E0B0E01D
:103272000E94C51CE091120AABE0B0E00E94C51C9E
:10328200E0E0E0934F0BA091610BA13011F0A2306E
:10329200C9F4A091590BA130A1F0A0915A0BA13011
:1032A20081F0A0915D0BA13061F0A0915E0BA13085
:1032B20041F0A0915F0BA13021F0A091600BA130F1
:1032C20009F401C004C0A091900BA13009F014C010
:1032D200AAE6BAE00E94471BA0916A0AB0916B0A63
:1032E200A83BEBE0BE0738F0E8EBFBE0E0936A0AAC
:1032F200F0936B0AF09A06C0F098E0E0E0936A0A55
:10330200E0936B0A1C9902C00E94C100F09B08C0A6
:10331200A0914E0BA13011F42D9A01C02D9801C03D
:103322002D98E1E0F0E0E715F80541F4A091830B58
:10333200A13021F40E9478100E94AC0EE2E0F0E08D
:10334200E715F80531F4A091870BA13011F40E9422
:103352007711E3E0F0E0E715F80529F4A091880B76
:10336200A13009F491D8E8E0F0E0E715F80531F46E
:10337200A091850BA13011F40E942611E5E0F0E046
:10338200E715F80531F4A091860BA13011F40E94E3
:103392004211E6E0F0E0E715F80531F4A091890B5F
:1033A200A13011F40E94AD11E7E0F0E0E715F80555
:1033B20031F4A0918A0BA13011F40E949311E4E040
:1033C200F0E0E715F80579F4A091840BA13041F4FF
:1033D200E0910301E170A1E00E94701CE13009F06C
:1033E20002C00E949210E9E0F0E0E715F80571F4DE
:1033F200A091870BA03041F4A091850BA03021F45D
:10340200A091860BA03009F001C001C00DC0F19B54
:1034120008C0E0910301E870A8E00E94701CE1304E
:1034220009F002C0B0D9F198A0918B0BA13011F430
:103432000E94CE0BA091580BA13011F40E94660D90
:10344200E0CDFFCF0E94231C3370003009F03061C1
:10345200103009F030680E94281CA7E00E940F1D5E
:10346200A32F21C00E942D1CA0E00E94341CAE2F6D
:103472005BD0D8010E94401C0E94471CDA01EC93E9
:103482000E94EA1C0E94651C2A9608950E94231C31
:103492000E94281CA0E00E944F1CA02F0E94A21A8A
:1034A200AE2F0E94571C0E940F1D0E94EA1C0E9410
:1034B200671C269608950E942D1CA3E00E94341CCE
:1034C200AA85BB850E94401CDA010E94401C0E9412
:1034D200471CD801EC930E94EA1C0E94651C2C96A2
:1034E20008950E94231C2E810E94281CA3E00E94A2
:1034F2000F1DA22F0E94571C0E940F1DA02F0E9479
:10350200A21AAE2F0E944F1C0E94EA1C0E94671C46
:10351200279608951A931A2FE091C000E072E1F302
:103522001093C60019910895AA93E881E295EF706D
:10353200AE2FAA0FAA0FEA0FEE0FA991AF70EA0FF2
:103542000895AA93A991EE27AA5012F0E05FFCCF4A
:10355200A65FEA0F08950A921A92FA926A937A93F0
:103562008A939A93AA93BA93EA93FA93EFB7EA9358
:103572001A930A930895B0E0E0E0F1E00E947D1C06
:10358200DF010895E0E0E093130AE093140AE09368
:10359200150AE093160AE093080AE093090A0895CF
:1035A200E093150AF093160A0895E0E1FAE0FA931F
:1035B200EA93E1E1FAE0FA93EA93A2E1BAE00C9429
:1035C200331AE0E0E093170AE093180AE093190A2D
:1035D200E0931A0AE0930A0AE0930B0A0895E09333
:1035E200190AF0931A0A0895EEE0FAE0FA93EA93C0
:1035F200EFE0FAE0FA93EA93EDE0FAE0FA93EA9365
:10360200ACE0BAE00C945C1AE0E0E093D50AE093F7
:10361200D40AE093D30AE093D20AE093D10AE0936A
:10362200D00AE093CF0AE093CE0AE093CD0AE0936A
:10363200CC0AE093CB0AE093CA0AE093C90AE0936A
:10364200C80A0895E0E0E093CF0AE093CE0AE0933F
:10365200CD0AE093CC0AE093CB0AE093CA0AE09346
:10366200C90AE093C80A0895E0E0E093D00AEACFDD
:10367200E091250BE093380BE091240BE093390B9A
:10368200E0E0E093680BE093690B0895ED91FD9102
:103692003196FE93EE930895A1E00E940D0BA3E0F4
:1036A2000E940D0BA3E20C940D0B0E940D0BA0E0E7
:1036B2000E940D0BA1E00C940D0BAFE70E948B1A38
:1036C200AEEF0C948B1AA0E00E948B1AA0E00E942D
:1036D2008B1AA0E00C948B1AADE00E948B1AAAE020
:1036E2000C948B1A1A930A931A2F0A8108954E2E5C
:1036F200A02F0E94200E00240B140C040895EBE06E
:103702004E2EE5E03E2EA3E0B0E00E94830DEAE0FB
:103712004E2EE3E03E2EA3E0B0E00E94830DE9E0EE
:103722004E2E3324A3E0B0E00C94830D4E2EE1E044
:103732003E2EA3E0B0E00C94830DEA93AB2D0C94E3
:103742006B0EEA93AB2D0C946F0EEA93AB2D0C9497
:10375200860EEA93AB2D0C948A0EA091130AB091B7
:10376200140A0895EAE0F0E00E94821C0895F5DF51
:10377200E4E6F0E00E94821C0895A4E6B0E00E9414
:10378200751C0895AE1BBF0BEDCFEAE0F0E00E947E
:103792009A1C0895A091170AB091180A0895FADFA9
:1037A200E4E6F0E00E94821C0895A091150AB0910F
:1037B200160A0895FADFE4E6F0E00E94821C0895FA
:1037C200A091190AB0911A0A0895FADFE4E6F0E02E
:1037D2000E94821C0895A091080AB091090A0895D6
:1037E200A0910A0AB0910B0A08950E942F0AA8E23A
:1037F2000E942F0AA0E20C942F0A0E942F0AA4E230
:103802000C942F0AA0E00E942F0AA0E00C942F0A29
:10381200A1E00E942F0AA0E00C942F0A0E942F0A16
:10382200A0E00C942F0A0E94B91CAE2F0C942F0A10
:10383200A8E30E942F0AA1E0D8CFE0916A0BF09191
:103842006B0B08953CD01A2F0C813D8108950E9484
:10385200DB1CA0ED0C940F1D30D08D012E813F8119
:1038620048855985F4CF0E940F1D0E94EA1C0E94D0
:10387200DB1CA1ED0E940F1DA1E00C94F41CEC9343
:10388200A1E00E94F41CAE2F0C94951AD901EC937E
:10389200A0E00E94F41CAE2F0C94951A0E940F1DFA
:1038A200A12F0E94A21AAE2F0C940F1D0E940F1D71
:1038B200A32F0E94A21AAE2F08955A934A933A93C5
:1038C2002A931A930A9308955D814C813B812A8140
:1038D200198108810895F195E195F0400895EA175C
:1038E200E1E009F0EE270895FA9FF02DEB9FF00D2D
:1038F200EA9FE02DF10D08952DD0F6DF0EF4EBDFF7
:1039020008950024112490E1AA0FBB1F001C111C72
:103912000E1A1F0A18F40E0E1F1E01C0A1609A95FE
:1039220099F7FD01D001089515D0EBDF0EF4D3DF36
:103932000895E7DFFD010895E894B7FF04C0B1954B
:10394200A195B0406894F7FDC6DFDBDFFD010EF400
:10395200C2DF0895E894F7FF02C0BDDF6894B7FFA5
:1039620006C0B195A195B04000F8039400FA0895FD
:10397200F999FECFFF93FFB7F894A1BDB2BDF89AB3
:10398200E0B5FFBFFF910895F99B02C0A895FCCF57
:103992009FB7F894A1BDB2BDF89A80B5E81719F0A7
:1039A200E0BDFA9AF99A9FBF089589988A98819AF8
:1039B200829815C082988198EE2700007A9B08951C
:1039C200799B089504D0829A02D0819AE1E067E05F
:1039D20007C0829A819A03D08198F9DF82986EE0BB
:1039E2006A95F1F7089578E08198F1DF799BFECF2F
:1039F200EEDF88947A990894819AF1DFEE1F7A9526
:103A020099F77A2F772311F4829801C0829ADFDF27
:103A12008198E5DF819ADBDF8298D9CF78E0AA0F1F
:103A220010F4829801C0829ADADF8198D0DF799B04
:103A3200FECFCDDF819A7A9591F78298C8DF81987F
:103A4200CEDFE1E07A99EE27819AC1CF109639F064
:103A5200A8958DEC9AE00197F1F71197C9F70895AF
:00000001FF
